:020000040800F2
:100000000020002099300008153100081531000843
:1000100000000000000000000000000000000000E0
:100020000000000000000000000000001531000882
:100030000000000000000000153100081531000824
:100040001531000815310008153100081531000878
:100050001531000815310008153100081531000868
:100060001531000815310008153100081531000858
:100070001531000815310008153100081531000848
:100080001531000815310008000000001531000886
:100090001531000815310008153100081531000828
:1000A0001531000815310008153100081531000818
:1000B000612E00080000000015310008000000005B
:0400C0005FF808F1EC
:1000C40010B5064C2378002B07D1054B002B02D02A
:1000D400044800E000BF0123237010BDD0010020BC
:1000E40000000000084C0008084B10B5002B03D09A
:1000F4000749084800E000BF07480368002B00D107
:1001040010BD064B002BFBD09847F9E70000000018
:10011400D4010020084C0008D00100200000000099
:100124008446081C6146FFE71FB500F0F9F9002872
:1001340001D40021C8421FBD10B500F08BF9404224
:10014400013010BD10B500F0EBF9002801DB0020F0
:1001540010BD012010BDC04610B500F0E1F9002823
:1001640001DD002010BD012010BDC04610B500F017
:1001740097F9002801DC002010BD012010BDC04605
:1001840010B500F08DF9002801DA002010BD01201F
:1001940010BDC0469E2110B5C905041CFFF7F0FF31
:1001A400002803D1201C00F0B9FC10BD9E21201CA6
:1001B400C90500F017FB00F0B1FC80231B069C4628
:1001C4006044F2E7F0B557464E46DE464546E0B594
:1001D40044024300C60F83B00F1C640A1B0EB246D0
:1001E40053D0FF2B27D08022E400D20414437F2273
:1001F400524290469844002399469B467D027800DB
:10020400FB0F6D0A000E009324D0FF2846D08023F4
:100214000021ED00DB041D437F384746381A4F4662
:100224000F43BF00B9463300009A874F53404A46F4
:10023400BA5801939746002C4ED108239946F733B8
:100244009846FD3B9B467D027800FB0F6D0A000E2D
:100254000093DAD1002D26D1002001213300009A29
:100264007A4F53404246101A4A460A439200BA58FB
:100274001D009746009B2C009A468B465B46022B3A
:1002840031D15346FF21002438E0002C17D1042338
:1002940099460023984601339B46AFE7FF20002D83
:1002A4000BD10221DAE7280000F0F4FF431F9D4040
:1002B40076235B42181A0021AFE70321ADE7200043
:1002C40000F0E8FF431F9C4076235B421B1A9846CC
:1002D400002399469B4691E70C239946F3339846AD
:1002E400FC3B9B468AE7032B00D1A5E05546012B36
:1002F40000D081E00123002100242B406402C905C1
:10030400600ADB070843184303B03CBC9046994697
:10031400A246AB46F0BD80240023E403FF21EDE7B1
:10032400FF210024EAE70123591A1B2966DD019AFB
:10033400134000210024E1E78023DB031C4238D072
:100344001D4251D01C436402640A3300FF21D5E7E7
:1003540063016C01A3423BD21B2600210138012515
:100364001F0049005B00002F01DB9C4201D81B1BCE
:100374002943013E002EF3D11C00631E9C410C4313
:1003840001007F310029CEDD630704D00F23234011
:10039400042B00D00434230103D501002C4B8031FD
:1003A4001C40FE290DDD0123019AFF211340002486
:1003B400A4E78023DB031C436402640A3300FF21A7
:1003C4009CE70123019AA401640AC9B2134095E78A
:1003D4001B1B1A260121C2E7009B8B469A46002468
:1003E4004CE76302E5D500258024E4032C43640232
:1003F400640A009BFF2181E70195C1E723002020C7
:10040400CB40411A8C40611E8C411C43630704D0CD
:100414000F232340042B00D00434630105D50123AA
:10042400019A01211340002468E70123019AA401E1
:10043400640A1340002161E78023DB031C43640248
:10044400640A5346FF2159E7204C0008604C000819
:10045400FFFFFFF770B5420045024E024C00C30F88
:100464006D0A120E760A240EC90F0120FF2A06D047
:10047400FF2C03D0A24201D1B54206D070BD002D9D
:10048400FCD1FF2CFAD1002EF8D18B4206D00120EA
:10049400002AF3D12800451EA841EFE70020EDE72C
:1004A400F0B5420045024C02C30F48006D0A120E1B
:1004B400640A000EC90FFF2A1ED0FF2821D0002A8B
:1004C4000AD16E426E41F6B200280FD1002C0DD134
:1004D4000020002D09D005E0002801D1002C01D016
:1004E4008B4211D0012158420843F0BD002EF7D0B1
:1004F400012001390843F8E7002DDED002204042F4
:10050400F3E7002CDBD0F9E78242EBDC04DBA54205
:10051400E8D80020A542E8D20121581E0843E4E7A8
:10052400F0B542004D024C004602760A120EC30F8B
:100534006D0A240EC90FFF2A16D0FF2C18D0002AEA
:100544000AD170427041C0B2002C15D0002805D0E9
:10055400012001390843F0BD002C13D0994214D076
:1005640001205B421843F6E70220002EF3D1E4E7B2
:100574000220002DEFD1E2E7002DE7D10020002E6C
:10058400E9D0EDE7002DE9D1EAE7A24206DCDFDBA2
:10059400AE4203D80020AE42DAD3DCE70120494260
:1005A4000843D8E7F8B557464E464546DE46E0B51B
:1005B4004702460088467F0A360EC40F002E47D0F5
:1005C400FF2E24D0FB008027FF041F4300239946FD
:1005D4009A467F3E43465D025800DB0F6D0A000ECB
:1005E400984643D0FF283BD0EB0080250022ED0441
:1005F4001D437F383618731C41469B464B46614069
:1006040013430F2B64D875489B00C3589F46002F93
:1006140042D108239946063BFF269A46DAE741462B
:10062400022A28D0032A00D1CEE0012A00D0ACE06F
:10063400114000200022CCB24002D205400AE40757
:10064400104320433CBC90469946A246AB46F8BDB5
:10065400002F15D104239946033B00269A46B9E797
:10066400FF200222002DC5D00322C3E7002D19D19B
:1006740000200122BEE70124FF220C400020DBE71A
:10068400380000F007FE7626431F9F400023764281
:10069400361A99469A469DE70C239946093BFF264C
:1006A4009A4697E7280000F0F5FD431F9D40762306
:1006B4005B42181A00229DE780200024C003FF2219
:1006C400BAE73D005246ABE73D0021005246A7E79A
:1006D4003B0C9C462A04120C2B0C14006046654605
:1006E4003F043F0C7C4342435D437B43270C9B18F0
:1006F400FF18BA4203D980235B029C466544240454
:100704003A04240C121993015C1EA3413F0C920E6F
:100714007D191A43AD0115432B0104D501235E460F
:100724006A081D40154332007F32002A25DD6B071D
:1007340004D00F232B40042B00D004352B0103D508
:100744003200274B80321D40FE2A94DC0124A8018C
:10075400400AD2B20C406FE78020C003074207D0A2
:10076400054205D128434002400A4446FF2263E77C
:1007740038434002400AFF225EE70124A31A1B2BE0
:1007840005DD0C400022002056E75E46CBE72A0038
:100794002020DA40C31A9D402B005D1EAB41134359
:1007A4005A0704D00F221A40042A00D004335A01F5
:1007B40004D5012401220C4000203DE701249B01C3
:1007C400580A0C40002237E780200124C003284344
:1007D4004002400A0C40FF222EE7C046A04C00080D
:1007E400FFFFFFF7F0B54F46D64646464400C0B576
:1007F400C20F47024802400A844666467B0A480004
:10080400C90F9A46240E1500DB00000E8946F60037
:10081400FF2800D18FE001214F464F40390091421B
:1008240066D0221A002A00DC9DE000283DD1002E6B
:1008340000D18BE0511E002900D0B5E001249B1BA0
:100844005A0144D59B019F09380000F023FD053867
:100854008740844200DD96E0041B3A0020200134E6
:10086400E240041BA7403B005F1EBB41002413432E
:100874005A0704D00F221A40042A00D004335A0124
:1008840027D50134FF2C00D179E001229B015B0ABA
:10089400E4B22A405B02E405580AD207204310431D
:1008A4001CBC90469946A246F0BDFF2CE0D08021A6
:1008B400C9040E431B2A7BDC31002020D140821A5C
:1008C4009640721E96410E439B1B5A01BAD45A0796
:1008D400D0D10122DF082A40FF2C33D1002F00D1D0
:1008E400A8E08023DB033B435B025B0AFF24D1E7E0
:1008F400211A00294CDD00282AD0FF2CB8D08020F2
:10090400C00406431B2900DDAFE030002027C840A7
:10091400791A8E40711E8E4106439B195901D6D512
:100924000134FF2C00D185E001227A491A405B088A
:100934000B4013439CE7002E00D070E76BE73B1E8F
:10094400C5D100227B025B0AE4B2A3E714008FE75F
:10095400002E4DD0481E002857D19B1901245A015E
:10096400B5D50224E0E7002A25D1621CD2B2012ABF
:1009740072DD9F1B7A0135D5F71A0D0064E7012259
:1009840000232A4086E73B00634A241A13406FE79A
:1009940000296CD1611CC8B201284EDDFF2949D061
:1009A4009B195B080C0063E7FF2A41D00A0081E72A
:1009B40001269B1B89E7002C1CD0FF2821D0802412
:1009C400E404524223431B2A00DD96E01C00202548
:1009D400D440AA1A93405A1E93412343F31A0400A5
:1009E4000D002DE7002F00D02EE700220024A9E7F8
:1009F4000C003DE7002B58D0D243002AEED0FF284C
:100A0400E1D13300FF240D0032E7FF2910D00100AB
:100A140078E7002B6ED0FF24002E00D128E7802237
:100A24005146D203114203D06146114200D1330032
:100A3400FF241DE7FF2400232CE7002CE9D1002B21
:100A440063D0002E00D113E79B195A0100D43EE76E
:100A5400314A0C0013400BE7002C1ED1002B2FD180
:100A6400002E4FD033000D0002E7012655E7002C7D
:100A74001FD1002B43D0C94300290BD0FF2839D004
:100A84001B2944DC1C002027CC40791A8B40591EBA
:100A94008B4123439B19040040E7002B1AD1002EFD
:100AA40024D180270022FF031BE7330004000D003C
:100AB400DEE6FF281ED08024E40449422343DFE716
:100AC400002E00D1D4E69F1B7A0100D437E7F31A35
:100AD4000D00CDE6FF24002E00D1C9E68022504649
:100AE400D2031042A4D060461042A1D133000D00BD
:100AF400FF24BDE63300FF24BAE601236EE733008A
:100B04000400B5E6002700221CE73300B0E6012309
:100B1400C0E7C046FFFFFF7DFFFFFFFB410243002C
:100B2400C20F490A1B0E00207E2B0DDD9D2B0CDC11
:100B3400802000040143952B0ADC9620C31AD94077
:100B44004842002A00D108007047034BD018FBE745
:100B5400963B9940F4E7C046FFFFFF7F70B500283D
:100B640030D0C317C4185C40C50F200000F092FBBE
:100B74009E231B1A962B0DDC9622D21A94402A002F
:100B84006402640ADBB26402DB05600AD20718431C
:100B9400104370BD992B19DC9922D21A002A29DD41
:100BA40094402200144C1440510704D00F210A40F1
:100BB400042A00D00434620113D4A401640ADBB211
:100BC4002A00E0E7002200230024DCE705222100BC
:100BD400121AD140B922D21A9440621E94410C4395
:100BE400DAE7054B2A001C409F23A4011B1A640A60
:100BF400DBB2C8E72200D5E7FFFFFFFBF0B557469D
:100C04004546DE464E46E0B50C0398464E00230B9F
:100C140087B0070092469B46760DCD0F002E6BD011
:100C24006D4B9E4235D080245B46420F2404DB008A
:100C340014431C43C3009946684BA3469C460023B7
:100C440000276644029343461C035A00DB0F5046B8
:100C5400240B520D984600D176E05F4B9A426DD03A
:100C64008023410F1B040B435C49E4008C461C4366
:100C7400C300002062444146B6186940721C0191C9
:100C8400944607430F2F00D9B0E0554ABF00D2590C
:100C940097465B460343994600D087E000239B4672
:100CA400023308270293CEE742460192022867D016
:100CB400032800D10EE2012800D062E100230024C1
:100CC4000022994601990140CDB2002112030B0D77
:100CD400120B1B051343434A240513401C436400B1
:100CE400ED0764082C434846210007B03CBC9046FD
:100CF4009946A246AB46F0BD034399464FD05B46A6
:100D0400002B00D189E1584600F0C4FA03000B3BE4
:100D14001C2B00DD7AE11D22D31A3A0001005C4647
:100D2400DA4008398C4013008F4023439B46B94670
:100D340000232D4E0027361A029384E7534623439B
:100D44002AD10024022096E75346234320D0002CC6
:100D540000D157E1200000F09DFA03000B3B1C2B4F
:100D640000DD49E11D21CB1A51460200D94053460A
:100D7400083A944093400C431B4A121A00207AE725
:100D84000125019B144C1D400023002299469CE739
:100D94000024002201206EE7534603206BE7002362
:100DA4009B4601330427002602934CE70323814624
:100DB4000C27029347E7802200230025120399465B
:100DC400054C82E75C464B4602986FE75C464B460F
:100DD400019502986AE7C046FF07000001FCFFFF87
:100DE400E04C0008FFFF0F800DFCFFFF4A46494618
:100DF400170C1A0C1B041B0C08041900000C4143AB
:100E04001500884619007D437943039589462900D6
:100E1400150045434D44029545462D0CAA46029DB6
:100E24005544A94506D98A46802149028946CA44BF
:100E340051460391290C0491414609042D04090CDF
:100E440088462900250C24044144240C05912100E2
:100E540041438846210079438A46684341465044C9
:100E64008146080C48446F43824503D980214902D6
:100E740089464F44010C8946390049440291414650
:100E84000F0404993F0C88460004C019804441466D
:100E9400049159460F0C0904090C884659438A46A3
:100EA40039005143894641464A435146090C8B4611
:100EB4007B43D2185A44934203D980235B029B4656
:100EC400D94451460904090C8A46414661437C438E
:100ED400130C12044B445244A1468A463C0041463A
:100EE4006C434D4351464D440F0C7D19A94503D91C
:100EF4008021490288464444049F0399B8464144EA
:100F04008B468345804141428846514608042F045C
:100F1400000C3F1858460299101889469042924195
:100F24004F44BA46524299469346C244D144CB44B4
:100F34008F42BF41C245894199459B4193459241A6
:100F44007F4249422D0C52420F435B4213437F19A7
:100F5400FF185B463C19DB0D059A64021C434302EF
:100F640013435D1EAB415A46C00D03435202134363
:100F7400E20156D501205A0803401343E207134304
:100F840064085A48604400284DDD5A0709D00F22EE
:100F94001A40042A05D01A1D9A429B415B42E41868
:100FA4001300E20104D58020514AC000144060447B
:100FB400504A904200DDE3E60125DB0862071A434C
:100FC4006402019B9146220B4405640D1D407CE69E
:100FD400802259461203114208D0144206D12243FA
:100FE4001203120B45469946434C6EE65B461A4380
:100FF4001203120B404C68E603005446283B9C4005
:101004000023B9E600F046F92030A6E60300283BA9
:101014009F400023BB4699468AE600F03BF9203006
:1010240074E6B446ADE701252A1A382A06DD019B89
:1010340000241D4000230022994646E61F2A21DC95
:1010440020252000AD1A1E00AB40A840D6405D1EEE
:10105400AB4130431843D440430709D00F23034026
:10106400042B05D00300181D98429B415B42E418F1
:10107400230221D50125019B01241D4000230022C8
:10108400994622E61F2521006D42281AC140080016
:10109400202A1DD05F35AA1A944023435C1EA34125
:1010A400072503431D400022002D09D00F220024F0
:1010B4001A401800042AD6D1030065076402220BE3
:1010C400DB082B4301259946019B00241D40FCE5C8
:1010D4000024E2E78022012512032243019912032E
:1010E400120B0D409946044CEFE5C046FF03000087
:1010F400FFFFFFFEFE070000FF07000070B5002899
:1011040030D0C317C4185C40C50F200000F0C2F8EB
:10111400174B184A1B1AD21A1F2A18DD164AD21A5C
:101124009440002224035B05240B5B0D0021100076
:1011340024030A0D240B12052243104C1B052240E4
:1011440013435B00ED075B082B43190070BD2100BE
:1011540091400A000B21081AC4405B052403240BA8
:101164005B0DE3E70025002300240022DEE7C046F0
:101174001E0400003304000013040000FFFF0F806E
:10118400F0B54C00640D0B03621C450F5B0A52055D
:101194002B43C90FC500520D012A28DD3A4AA6186F
:1011A400FE2E1BDC002E3EDD80010200501E82411B
:1011B4006D0F2A43DB0013435A0704D00F221A4051
:1011C400042A00D004338022D2041A405AD00136B3
:1011D400FF2E03D09B015B0AF4B201E0FF2400233D
:1011E4005802E405400AC90720430843F0BD002C17
:1011F40007D01D43F2D08020DB0080040343FF2688
:10120400DAE72B4303D00523DB08FF2C03D05B0272
:101214005B0AE4B2E4E7002B32D08020C00303432E
:101224005B025B0ADCE73200173214DB80221E27E4
:1012340012041343BF1B1F2F0FDC144A944664444B
:101244002A00A5402E00A340751EAE41FA40334348
:1012540013430026B0E70024D5E702225242961B2E
:101264001A00F240202F09D0094884466444A34060
:101274002B435D1EAB41002613439DE70023F7E794
:101284000023ADE73400BFE780FCFFFF82FCFFFFD3
:10129400A2FCFFFF1C2101231B04984201D3000C74
:1012A40010391B0A984201D3000A08391B099842D5
:1012B40001D30009043902A2105C40187047C046EB
:1012C400040302020101010100000000000000000B
:1012D4000023C25C0133002AFBD1581E7047000072
:1012E40002B4714649084900095C49008E4402BCB5
:1012F4007047C046002243088B4274D303098B42D3
:101304005FD3030A8B4244D3030B8B4228D3030CD1
:101314008B420DD3FF22090212BA030C8B4202D373
:101324001212090265D0030B8B4219D300E0090A9B
:10133400C30B8B4201D3CB03C01A5241830B8B42A4
:1013440001D38B03C01A5241430B8B4201D34B038D
:10135400C01A5241030B8B4201D30B03C01A5241F2
:10136400C30A8B4201D3CB02C01A5241830A8B4277
:1013740001D38B02C01A5241430A8B4201D34B0260
:10138400C01A5241030A8B4201D30B02C01A5241C4
:10139400CDD2C3098B4201D3CB01C01A5241830978
:1013A4008B4201D38B01C01A524143098B4201D3B2
:1013B4004B01C01A524103098B4201D30B01C01ADD
:1013C4005241C3088B4201D3CB00C01A5241830857
:1013D4008B4201D38B00C01A524143088B4201D384
:1013E4004B00C01A5241411A00D2014652411046E4
:1013F4007047FFE701B5002000F0F0F802BDC046D9
:101404000029F7D076E7704703460B437FD40022C8
:1014140043088B4274D303098B425FD3030A8B4284
:1014240044D3030B8B4228D3030C8B420DD3FF22EE
:10143400090212BA030C8B4202D31212090265D0BC
:10144400030B8B4219D300E0090AC30B8B4201D36F
:10145400CB03C01A5241830B8B4201D38B03C01AB6
:101464005241430B8B4201D34B03C01A5241030B2D
:101474008B4201D30B03C01A5241C30A8B4201D3DE
:10148400CB02C01A5241830A8B4201D38B02C01A89
:101494005241430A8B4201D34B02C01A5241030A00
:1014A4008B4201D30B02C01A5241CDD2C3098B42E5
:1014B40001D3CB01C01A524183098B4201D38B0162
:1014C400C01A524143098B4201D34B01C01A524105
:1014D40003098B4201D30B01C01A5241C3088B424A
:1014E40001D3CB00C01A524183088B4201D38B0035
:1014F400C01A524143088B4201D34B00C01A5241D7
:10150400411A00D201465241104670475DE0CA0FAD
:1015140000D04942031000D34042534000229C466D
:1015240003098B422DD3030A8B4212D3FC22890177
:1015340012BA030A8B420CD3890192118B4208D34D
:10154400890192118B4204D389013AD0921100E0AF
:101554008909C3098B4201D3CB01C01A52418309C3
:101564008B4201D38B01C01A524143098B4201D3F0
:101574004B01C01A524103098B4201D30B01C01A1B
:101584005241C3088B4201D3CB00C01A5241830895
:101594008B4201D38B00C01A5241D9D243088B42EB
:1015A40001D34B00C01A5241411A00D2014663468E
:1015B40052415B10104601D34042002B00D54942F2
:1015C400704763465B1000D3404201B5002000F031
:1015D40005F802BD0029F8D016E770477047C046E9
:1015E4008446101C62468C46191C634600E0C046C3
:1015F4001FB500F015FF002801D40021C8421FBD0B
:1016040010B500F06FFE4042013010BD10B500F07F
:1016140007FF002801DB002010BD012010BDC046DB
:1016240010B500F0FDFE002801DD002010BD0120F2
:1016340010BDC04610B500F08FFE002801DC00206C
:1016440010BD012010BDC04610B500F085FE002875
:1016540001DA002010BD012010BDC046F8B5454692
:10166400DE4657464E460C03E0B54E00C90F884689
:101674000D00610A440F0C43C70019035800DB0F27
:101684009B464B0A510F0B43760D400D1900D200B7
:10169400D84500D1AEE0351A002D00DCF6E0002874
:1016A4000FD1134300D1DBE06B1E002B00D037E1D8
:1016B400BA1A9742BF41641A7F42E41B01261700FD
:1016C40024E0C64B9E424DD080231B041943382D81
:1016D40000DD07E11F2D00DD38E12020431B9A4681
:1016E4000B0050468340994613004846EB4018438C
:1016F400030050468240501E8241E9401A43BA1A00
:10170400611A9742A441170064420C1B230262D55C
:101714006402650A002D00D1DFE02800FFF7BAFD5E
:101724000300083B1F2B00DDD2E020223C00D21A2C
:101734009D40D4409F4025439E4200DDC4E09E1B53
:10174400731C1F2B00DDF1E0202238002900D21A7F
:10175400D840914097402C000143781E8741DC40DB
:1017640000260F437B0709D00F233B40042B05D0F1
:101774003B1DBB42BF417F42E4191F0023022CD50D
:10178400964B01369E4200D19AE04546944BFF08A1
:101794001C406007760564020743240B760D002184
:1017A4002403230B0C0D8F4A24051C4314403305DA
:1017B40023435B00ED075B082B43380019003CBC56
:1017C40090469946A246AB46F8BD6446044300D110
:1017D40011E2040067467B07C6D145466007FF084F
:1017E4000743E4087D4B9E4230D024037605240B46
:1017F400760DD4E7331A9A46002B78DD002831D0D1
:1018040076488642AED08020000401435346382BEC
:1018140000DCE9E00A43511E8A410021D219BA4290
:10182400BF4109197C4217000C192302D3D56B4B15
:1018340001369E4200D13AE10120694B1C407B08ED
:1018440007401F43E007074364088BE723003B433B
:1018540000D1CBE18022120314432403240B9EE71E
:101864002E007FE70800104300D1B4E0581E002882
:1018740000D0DEE0BA18BA429B4164185B42E41817
:10188400170001262302A6D50226D5E7002D6ED126
:10189400701C4005400D012800DCF9E0B81A8446AC
:1018A40087428041E51A40422D1A280200D489E07B
:1018B400D71BBA4292411C1B5242A51AD84629E7AB
:1018C4004546002400276AE7454CF61A2C4049E7B0
:1018D4003D002838854000272EE73800FFF7DAFC62
:1018E40020301DE70A43511E8A41002107E7002BDF
:1018F40000D0F3E0701C43055B0D012B00DCADE070
:10190400364B984200D1D1E0BA18BA42BF416418AC
:101914007F42E419E707520817436408060021E7E9
:101924002E48854200D193E01D00D0E629001F3ED9
:10193400F140202B00D18DE04022D31A9D402F434B
:101944007D1EAF4100240F43002644E72B0008000E
:10195400203BD8400300202D00D17DE04020451BD2
:10196400A9400A43511E8A4100211A43C7E6002EAA
:1019740050D01A4EB04257D080266B429946360456
:1019840034434B46382B00DDD6E01F2B00DD35E118
:101994002026F51A2600AE40B2463E00DE40AC4694
:1019A400350056462E436546AF407D1EAF41DC40B0
:1019B4003743D71BBA4292410C1B5242A41A060069
:1019C400D846A3E6644667462C4300D0A2E6002529
:1019D4000026002706E71E00C4E6C046FF070000F5
:1019E400FFFF7FFFFFFF0F801F2B63DC2020C31A44
:1019F400080098409C46834653461000D840030094
:101A04005846184363469A40531E9A41534602432C
:101A1400D94003E726003E4306D0EB439946002B0A
:101A2400C7D0944EB042ACD10C0017000600D84683
:101A340098E6904B9A450BD08246E7E6002800D002
:101A44009EE01800104300D1E9E01C001700D846BE
:101A5400884E87E6002572E7002182E723003B4396
:101A6400002E00D0ABE0002B00D1E7E00B001343C5
:101A740000D177E6BA18BA42BF4164187F42E4192C
:101A8400230200D4F2E07C4B17001C40060069E6F8
:101A940020003843002ED1D100285BD11C00144310
:101AA40000D1A8E01C001700D8465BE6060000241D
:101AB400002797E650460B002038C340994653460A
:101AC400202B00D195E0402350461B1A99400A432D
:101AD400511E8A414B4600211A439FE6002E30D105
:101AE40026003E4367D0DB439A46002B1CD0614E50
:101AF400B04260D05346382B00DD96E01F2B00DD4A
:101B04009FE02026F31A26009E409C46B346534687
:101B14003E00DE4033005E461E4363469F407B1E0C
:101B24009F415346DC403743BF18974292416418A3
:101B34005242A418060078E627437C1EA7410024DD
:101B440037E74C4EB04236D080265B4236049A4684
:101B54003443CFE71800104300D103E6B81A844693
:101B64006745AD41E01A6D42401B050200D42CE6E6
:101B7400D71BBA4292411C1B5242A41AD846F1E523
:101B84001800104300D163E7F80867070743802073
:101B9400E4080003044208D0DD08054205D1D20858
:101BA400590711430F002C00D8467B0FE4001C4357
:101BB400FF00304ED6E50C0017000600D2E5002BDE
:101BC40038D00B00134300D142E7F80867070743F6
:101BD4008020E40800030442E7D0CB080342E4D1A8
:101BE400D208490711430F001C00DEE70027002438
:101BF400D5E500216BE700250027F3E54E462500D7
:101C0400203EF5404B462E00202B2DD04025ED1ACA
:101C1400AC4027437C1EA74100243743C9E68024F7
:101C240000252403134E0027DCE527437C1EA7412F
:101C3400002479E70C0017000E4E93E50C00170002
:101C440090E556462300203EF34099465346202B08
:101C54000ED0402356469B1B9C4027437C1EA74125
:101C64004B4600241F435FE70024D2E71700B2E588
:101C74000024F2E7FF070000FFFF7FFFF0B557469F
:101C84004546DE464E46E0B54C000E0387B083461B
:101C940092461D008046360B640DCF0F002C4FD0AA
:101CA4006F4B9C4235D08023420F1B04F600134334
:101CB40033439946C30098466A4B00269C4600234A
:101CC400644403932B031B0B9B466B00ED0F5046A0
:101CD4005B0D01955ED0624A934253D05A46D100BF
:101CE4008022400F120402430A4393465246D10015
:101CF4005C4A94460022634438006840844602905B
:101D0400E41A16430F2E00D9B4E0574BB6009B5982
:101D14009F460300334399466CD10023984602330F
:101D240008260393CEE7CB464146039A0197022A3D
:101D340065D1019B4A4C9C460023002298466BE0E7
:101D44000300334399464ED0002E00D1BCE130004D
:101D5400FFF7A0FA03000B3B1C2B00DDACE11D22B6
:101D6400D31A5A460100DA4008398E40130033432F
:101D740099465B468B40984600233C4C0026241A27
:101D840003939FE751465A46114329D100229346B3
:101D94000232B1E7594601431ED05B46002B00D105
:101DA4009EE15846FFF776FA03000B3B1C2B00DD3F
:101DB4008FE102005946083A91408B461D21CB1A07
:101DC4005146D9400B0059460B4351469B4691401E
:101DD400264B00221B1A8FE7002301229B468BE728
:101DE4005146032288E70023984601330426002441
:101DF400039367E70323B14603930C2662E7032AA0
:101E040000D15CE2019B012A00D0E4E113409C462E
:101E1400002300240022984600211203130B0A0D0C
:101E240012051A432305124C4046224013436246CE
:101E34005B00D2075B081343190007B03CBC904613
:101E44009946A246AB46F0BD002380229C4612036D
:101E54009846034CE0E70023014C00229846DBE758
:101E6400FF07000001FCFFFF204D00080DFCFFFFF1
:101E7400FFFF0F80D94500D939E100D134E10023B7
:101E840046464D469A46013C5B460A0E1B021A43DF
:101E94000B02170C039313041B0C39002800904603
:101EA4000193FFF727FA0200019B83465A43280057
:101EB40039009146FFF7A4FA350C09040D43A945EE
:101EC4000DD95B464544013BA84500D93AE1A945F3
:101ED40000D837E102235B429C464544E3444B4629
:101EE400EB1A390018000493FFF704FA019B05006C
:101EF4004343390004989946FFF782FA33040904EE
:101F04001B0C0B43994509D943446A1E984500D9D3
:101F14001AE1994500D817E1023D43444A469B1A09
:101F24005A4612042A4303999346100C0A0C91460C
:101F340009045A46090C4E460D001204120C45437E
:101F4400059151437243704352190E0CB2189542D5
:101F540003D980256D02AC466044150C09041204B3
:101F6400090C28185218834200D2CEE000D1C8E0F0
:101F74001D1A53469E1AB24592415242AB1A9A46D2
:101F8400984500D117E139001800FFF7B3F9019B18
:101F940005004343390050460493FFF731FA04988F
:101FA4000B04310C1943884209D941446B1E8845FE
:101FB40000D907E1884200D804E1023D4144049B72
:101FC400CB1A180039000493FFF794F9019B824659
:101FD4004343390004980193FFF712FA01980B0464
:101FE4003104090C194388420DD953464144013B3D
:101FF400884500D9E8E0884200D8E5E002235B4246
:102004009C464144E244019B2D04CE1A5146294387
:10201400059D4F462A000B04080C1B0C5A434543EC
:102024007B4378435B19170CFB189D4203D9802529
:102034006D02AC4660441D0C12041B04120C2818DB
:102044009B18864200D293E000D18EE0012319430D
:10205400A04BE318002B00DC99E04A0700D09EE077
:102064005A46D20106D55A469B4B1A4080239346C2
:10207400DB00E318994A934268DD0123029A984CE5
:102084001A400023944698460022C5E680224B4617
:10209400120313420AD05B46134206D11A431203B9
:1020A400120BAC4688468E4CB6E64B461A431203D6
:1020B400120BBC468A4CAFE603005A46283B9A40B2
:1020C40000239146984657E65846FFF7E3F8203038
:1020D40040E603005246283B9A400021934677E6A7
:1020E400FFF7D8F820305FE6884500D2C7E64B46B4
:1020F400DE075D0843465B081E434346DB079A46FA
:10210400C2E60025924500D333E7039E5946B44600
:10211400E244B245AD416D424544EB18013998455E
:1021240007D2984200D97FE000D1BCE01D1A8B464B
:102134001FE79845FAD1039D5545F2D943468B468E
:102144001D1A16E79B46CAE61500E7E65A46C90873
:1021540052070A435B0590465C0D5A4601230299D7
:1021640052021940120B8C4656E6002B00D16FE741
:1021740046444A1EB04529D91100864200D065E77D
:10218400039A934200D061E762E7012149420120AA
:10219400C21A382A21DD029B03409C4638E60F22EE
:1021A4000A40042A00D15BE70A00111D91429241C2
:1021B4005242934454E7474BE318002BE5DD0122D8
:1021C4005242F2E71D00FAE69A461CE7B04239D8BB
:1021D4006ED011003AE702933AE71F2A3CDC202331
:1021E4009B1A0C005846994098404B1E99415B46F7
:1021F400D440D340204308431A00430709D00F2397
:102204000340042B05D00100081D88429B415B421A
:10221400D21813023AD50123029A01241A4000234A
:10222400944698460022F7E5022149428C46039DD4
:10223400E344AC46E244AA45AD416D424544ED1841
:102244002D1A96E68A1E03994D008D428941494212
:102254004144761803958FE71F204042C31A58461D
:10226400D8400300202A28D040205D46821A954099
:1022740029434A1E91411943072300220B4009D0E8
:102284000F2300220B400800042BBDD1010053078B
:102294005202120BC90819430123884602990024EB
:1022A40019408C46B8E55245BED88B46002560E6F9
:1022B400039D9D42C6D3110062E70025D8E7802222
:1022C4005B4612031A43019B1203120B9C46884679
:1022D400034CA1E5FF030000FFFFFFFEFE07000023
:1022E400FF070000F0B54F464646D6465C00C0B531
:1022F4001F03DB0F9A46174B0E034D00844680469E
:10230400360B6D0DC90F91463F0B640D01209D42A4
:1023140008D09C4201D0A5420BD01CBC90469946E3
:10232400A246F0BD63463343F7D1AC42F5D13A43FC
:10233400F3D10120BE42F0D1C845EED1514507D0BA
:10234400002DEAD163461E433000461EB041E4E747
:102354000020E2E7FF070000F0B54546DE46574699
:102364004E46E0B51F033D0B2C4F0E034C00AB460D
:102374005D008446360B640DC90F90466D0DDB0F6E
:10238400BC422AD0254FBD422DD0002C0FD1304362
:102394000700814678427841C0B2002D17D15F46CC
:1023A4003A4314D14B460020002B0AD006E0002DFE
:1023B40002D15846024301D0994218D04842012123
:1023C40008433CBC90469946A246AB46F0BD002863
:1023D400F2D00120013B1843F3E737000743D1D083
:1023E40002204042EDE75F461743CED0F8E7AC4207
:1023F400E4DC03DA481E01210843E2E75E45DDD848
:1024040006D000205E45DCD20123481E1843D8E7DD
:10241400C445D3D80020C445F6D3D2E7FF07000053
:10242400F0B54E464546DE4657465C00E0B51F0310
:10243400DB0F99462A4B0E034D00C90F8446360B19
:102444006D0D8B4690463F0B640D9D4220D0244B6E
:102454009C4222D0002D12D1304343424341DBB28F
:10246400002C1FD0002B0CD04B460120013B034312
:1024740018003CBC90469946A246AB46F0BD002CE1
:1024840016D0CB4517D05B46594201230B43EFE7E7
:10249400310002230143EBD1D9E739000223114370
:1024A400E6D1D7E73A43DDD100230028E0D0EAE7BC
:1024B4003A43E6D1E7E7A542E5DC05DBBE42E2D8D4
:1024C40007D00023BE42D3D25946012301390B431E
:1024D400CEE7C445D7D80023C445F5D3C8E7C046E2
:1024E400FF070000F0B54646D6464F460C03C0B57C
:1024F400CD0F4E00610A440F0C43C1005800400D3B
:1025040084468A460F001903500F490A0143C648FE
:10251400760DA846DB0FD200844500D1D8E0012017
:102524004340AB4200D1A6E06046351A002D00DCE2
:1025340005E1002810D10B00134300D1D7E06B1E36
:10254400002B00D04BE153469F1ABA458041641AD0
:102554004042241A01261EE0B34B9E4248D08023F9
:102564001B041943382D00DD19E11F2D00DD4CE15A
:1025740020230F005B1B10009A409F40E840531E2D
:102584009A41E940074317435346DF1B611ABA4592
:10259400A44164420C1B230200D4C5E06402650A12
:1025A400002D00D1F6E02800FEF774FE0300083B7E
:1025B4001F2B00DDE9E020223C00D21A9D40D440CC
:1025C4009F4025439E4200DDDBE09E1B731C1F2BB6
:1025D40000DD0AE120223800D21A290097402C009D
:1025E4009140D8407A1E9741DC40002601430F43B6
:1025F4007B0709D00F233B40042B05D03B1DBB4276
:10260400BF417F42E4191F00230225D5864B0136C2
:102614009E4200D1AFE0854B01251C404346620732
:10262400FF08640276051743240B760D1D40002134
:102634002403230B0C0D7E4A24051C43144033054C
:1026440023435B00ED075B082B43380019001CBCD7
:1026540090469946A246F0BD012543466207FF080D
:102664001743E4081D40704B9E4236D02403760580
:10267400240B760DDBE76346F31A002B00DC94E0B1
:102684006046002835D068488642B1D080273F0490
:102694003943382B00DCFDE00A43170000217A1E81
:1026A4009741574457458041091944420C19230264
:1026B4003AD55D4B01369E4200D14BE101225B4B82
:1026C4001C407B0817401F43E207174364088FE749
:1026D4000800104300D024E721E723003B4300D146
:1026E400B9E18022120314432403240B9FE72E0034
:1026F4007EE70800104300D1CAE0581E8446002833
:1027040000D0E7E052445245804164184042241806
:1027140017000126230207D50226CFE764462C437F
:1027240000D1B3E12C0067467B0700D062E7630762
:10273400FF081F4301254346E4081D4093E7002D8D
:1027440078D1751C6D056D0D012D00DCF2E050464D
:10275400801A8245BF41651A7F42ED1B84462802D8
:1027640000D48CE05046171ABA4292410C1B5542D1
:10277400651B984614E70125434600241D400027A5
:1027840055E72A4CF61A2C4032E73D00283885409C
:10279400002717E73800FEF77DFD203006E70A43DF
:1027A400170000217A1E9741EEE6002B00D0E5E0E9
:1027B400731C9C465B055B0D012B00DC9FE01A4BF0
:1027C4009C4500D1C5E052445245804164184042C2
:1027D4002418E707520817436408664608E71248B6
:1027E400854200D185E01D00BCE629001F3EF14072
:1027F400202B00D17FE04022D31A9D402F437D1E21
:10280400AF4100240F4300268EE72B000F00203B2E
:10281400DF40202D71D040235D1BA9400A43511E87
:102824008A4100211743AFE6FF070000FFFF7FFF47
:10283400FFFF0F80002E3ED0B34EB44545D0802616
:1028440036046D423443382D00DDA8E01F2D00DD31
:102854001FE1202627005046761BB740E840074377
:102864005046B040461EB041EC403843171ABA42B5
:1028740092410C1B5242A41A664698468BE6644663
:1028840067462C4300D08BE6002500260027EAE6A5
:102894001E00ADE61F2B60DC2027F81A0F008446CB
:1028A40087401000D840074360468240501E824152
:1028B400D9401743F5E626005046064305D0ED43BC
:1028C400002DD3D0904EB445BDD10C001700664600
:1028D40098468DE68C4883420BD06346D9E6002D9A
:1028E40000D096E00800104300D1E2E00C0017008D
:1028F4009846854E7CE6002580E700218EE723007C
:1029040050460343002E00D0A8E0002B00D1DEE0A7
:102914000B00134300D16BE65244524580416418C6
:10292400404224181700230200D4FDE6774B664684
:102934001C405DE6250050460543002ECFD1002DF6
:102944004FD10C00144300D1A0E00C0017009846AE
:102954004EE666460024002785E61F000800203F57
:10296400F8400700202B00D18EE04020C31A994084
:102974000A43511E8A410021174392E6002E14D1C6
:1029840026005046064362D0DB43002B5CD18718F7
:102994009742924164185242A418664687E650460C
:1029A4002043441EA041002460E7574EB4454ED056
:1029B400802636045B423443382B00DD7FE01F2B36
:1029C40000DD8BE0202627005046F61AB740D84099
:1029D40007435046B040461EB0410743DC40BF1891
:1029E400D6E70D00154300D102E65046801A824511
:1029F400BF41651A7F42ED1B8446280200D48DE650
:102A04005046171ABA4292410C1B5242A41A9846D5
:102A1400EEE50D00154300D16BE750466707C0088B
:102A240007438020E4080003044207D0CD08054290
:102A340004D12C009846D70849070F437B0FE400C4
:102A44001C43FF00304ED3E52F4EB445B4D10C00E7
:102A540017006646CCE500270024E8E5002B39D0B2
:102A64000B00134300D144E7C008670707438020E5
:102A7400E40800030442E1D0CB080342DED1D708C6
:102A840049070F431C00D9E7002171E700250027FF
:102A9400E9E52E002700203EF740202D2FD04026C8
:102AA400751BAC4050462043441EA04100243843CB
:102AB400DCE6802400252403134E0027D3E550468A
:102AC40020430700781E87410024BF1860E70C00EC
:102AD40017008DE50C0017000B4E89E51E0027003A
:102AE400203EF740202B0CD04026F31A9C40504641
:102AF4002043441EA04107430024BF1848E7002494
:102B0400D0E70024F3E7C046FF070000FFFF7FFF84
:102B140070B50E4E0D031C0349005B002D0B490DCF
:102B2400240B5B0DB14204D0084900208B4208D02D
:102B340070BD05430120002DFAD1044900208B42C9
:102B4400F6D114432000441EA041F1E7FF07000022
:102B540030B5134D0A034B00120B5B0DC90F002453
:102B6400AB4210DD0F4CA3420FDC80240E4D6403F6
:102B74002243ED1A1F2D0BDD0C48C31ADA405442D0
:102B8400002900D11400200030BD094BCC18FAE70D
:102B9400084CE840A44663449A400243EFE7C04629
:102BA400FE0300001D0400003304000013040000B1
:102BB400FFFFFF7FEDFBFFFF10B5041E28D0FEF7DB
:102BC40069FB154B154A1B1AD21A1F2A15DD144A24
:102BD400D21A9440002224035B05240B5B0D0021D0
:102BE400100024030A0D240B120522430D4C1B056F
:102BF400224013435B00590810BD210091400A0094
:102C04000B21081AC4405B052403240B5B0DE6E783
:102C1400002300240022E2E71E0400003304000025
:102C240013040000FFFF0F8010B500F04FF810BD33
:102C340010B500F065F8CC2000F0EAF8442000F06C
:102C4400E7F8002301E0C04601331C4A9342FAD955
:102C540000F056F8CC2000F0DBF8BE2000F0D8F8E5
:102C6400002404E000F0E5F8154B18550134012C5C
:102C7400F8DD00F045F8124B587800021B78184331
:102C8400FEF73CFA00220F4BFDF7B8FFFEF778FA87
:102C9400041C0021FDF774FA002804D000220A4B1A
:102CA4001A70201C10BD0021201CFDF74BFA0028CF
:102CB400F7D00122044B1A70F3E7C046DFE60B009D
:102CC400000200200000B03FFC010020094A5169C5
:102CD4008023DB020B435361074A136807490B4007
:102CE4001360002301E0C0460133E222FF32934225
:102CF400F9DD70470010024000040048FFFFFFFEAA
:102D0400104A116880235B040B431360002301E025
:102D1400C0460133E222FF329342F9DD094A1368C7
:102D240009490B401360002301E0C04601335A2BCC
:102D3400FBDD002301E0C04601339C22FF329342B5
:102D4400F9DD704700040048FFFFFFFE0B4A1168DD
:102D540080235B040B431360002301E0C04601336E
:102D64004F2BFBDD054A136805490B401360002314
:102D740001E0C04601330A2BFBDD70470004004824
:102D8400FFFFFFFE0B4A116880235B040B431360B3
:102D9400002301E0C0460133052BFBDD054A13681F
:102DA40005490B401360002301E0C0460133522B58
:102DB400FBDD704700040048FFFFFFFE124A116864
:102DC40080235B040B431360002301E0C0460133FE
:102DD400052BFBDD0C4A13680C490B4013600023E0
:102DE40001E0C0460133082BFBDD074B1B8ADB04E3
:102DF40002D40020002303E00120FBE7C046013396
:102E0400482BFBDD7047C04600040048FFFFFFFE6F
:102E140070B50500002404E0FFF798FF6D08013445
:102E2400E4B2072C04D8EB07F6D5FFF7ABFFF5E7C0
:102E340070BD70B50024002501E00134E4B2072C14
:102E440009D86D08FFF7BAFF0028F6D080235B424B
:102E54001D43EDB2F1E7280070BD000010B51B4A18
:102E64001378DBB21A49898CC9B21A48C154137851
:102E74000133DBB213701378DBB2012B09D90022C2
:102E8400124B1A700378312B04D0124B1B78322B5F
:102E94000DD010BD4378302B06D00E4B5B78312B10
:102EA400F7D100F0D1F8F4E700F0C4F8F1E7094BEA
:102EB4005B78302B06D0074B5B78312BE9D100F0DF
:102EC400D7F8E6E700F0CAF8E3E7C046EC010020D3
:102ED400004400400402002010B5164B59698022BA
:102EE4009202114359619021C9050868A024204326
:102EF40008600C6A8820400120430862D9690A43AB
:102F0400DA611A6B03210A431A630B4B9A890B4942
:102F14000A439A811A682D210A431A60064AD16924
:102F240080230B40D361F9D080225205044B1A60F0
:102F340010BDC046001002400044004041030000A0
:102F440000E100E0034BDB695B06FBD580B2014B7B
:102F5400188570470044004010B5FFF765FE00F087
:102F640057F8FFF7B9FF10BDF0B583B0FFF760FE67
:102F7400071C254B1B78002B34D1002201AB1A709F
:102F84002249381CFDF71EF9FDF704F9C4B201AE5D
:102F94007470A3001B195800FDF7E0FD011C381CD8
:102FA400FDF720FCFDF7F6F8C5B2B5701749381CDB
:102FB400FDF7F8FA071C64206043FDF7CFFD011C00
:102FC400381CFDF70FFC041CA80045196800FDF728
:102FD400C5FD011C201CFDF705FCFDF7DBF8F070B6
:102FE40000240CE0012BCBD1012201AB1A70C7E7FE
:102FF40001AB185D3030C0B2FFF7A4FF0134032CDD
:10300400F6DD03B0F0BDC046FC0100200000204105
:10301400064A516980231B030B435361044A116818
:10302400A023DB020B4313607047C046001002402C
:1030340000080048034A938A802189000B43938245
:103044007047C04600080048024A938A02490B4070
:103054009382704700080048FFFDFFFF034A938AEC
:10306400802149000B4393827047C0460008004802
:10307400024A938A02490B40938270470008004831
:10308400FFFEFFFF704710B5FFF766FFFFF76CFF09
:10309400FCE700001248854612480168090E124AEE
:1030A400914205D111481249016012481249016048
:1030B400002103E0114B5B58435004311048114B7D
:1030C40042189A42F6D3104A02E0002313600432F5
:1030D4000E4B9A42F9D3FFF7D5FFFFF7D4FFFEE773
:1030E40000200020040000001F000000181002400F
:1030F400010000000000014000000000904F0008A3
:1031040000000020D0010020D00100200C0200208B
:10311400FEE703008218934200D17047197001330F
:10312400F9E7F0B58BB014001D1E129953DA802410
:1031340024061B191D0014002D230B702023149E3C
:1031440003229E43462E07D03300453B59424B4150
:103154001099013ACB18109309AB049308AB03936D
:10316400139B00920293109B220001932B0000F00A
:10317400B3FB0700472E02D1119BDB0724D5109B1C
:10318400FB180793462E14D13B78302B0CD1002228
:10319400002320002900FEF733FA002804D101237C
:1031A400109A9B1A139A1360139B079A1B68D318DF
:1031B40007930022002320002900FEF721FA302281
:1031C40000280DD0079B09933800099B159ADB1B37
:1031D40013600BB0F0BD0023AFE7591C09911A70BE
:1031E400099B07999942F8D8EEE7F0B52B2385B0EF
:1031F40007000C000270861C002901DA2D234C42C2
:103204007B70092C23DD02ABDD1D6B1E20000A211F
:103214000193FEF7DFF96B1E3031197020000A218B
:10322400FEF7F2F8040009280ADC023D30342C7061
:1032340002AB07333000AB4204D8C01B05B0F0BD6D
:10324400019DE2E72B78013533700136F0E7302336
:10325400E4183370B01C7470EFE70000F0B595B05B
:103264000C000A920B931A9D099001F01DF9036852
:1032740018000D93FEF72CF80023129323680E9088
:103284000C930C99277E2B680722C90547D59B18F8
:1032940093431A0008322A601A685B68A264E364E4
:1032A4000122E56CA66C6B005B080F935242A74B9E
:1032B40030000F99FFF72CFC002800D006E2012211
:1032C400A24B524230000F99FEF7AAF9002800D011
:1032D400FCE10022002330002900FEF797F90028C2
:1032E40003D023002D2243331A70994D472F00D861
:1032F400984D032300260C9A236101339A432260DC
:103304000B9B13AA009321000A9B099800F0F2F981
:10331400431C00D09CE00120404215B0F0BD0733AF
:10332400B6E780236268DB00511C45D10732626036
:103334000C9A0021134312AA059211AA0392232284
:1033440023600691019308A96368521802920093BE
:1033540032002B0004970998FFF7E3FE20233A007C
:1033640005009A43472A07D1119BDA1C02DB6268E5
:1033740093425BDD023FFFB21199652F3BD82000D9
:1033840001393A0050301191FFF72FFF129A0600CD
:1033940083182361012A02DC2268D20701D5013394
:1033A4002361232308AA9B181B78002BA8D0230091
:1033B4002D2243331A70A3E7672F01D0472FB7D1CB
:1033C400002A16D00C9908A80B430021069112A9D3
:1033D400059111A9039123210918236001930092F7
:1033E4002B000497029132000998FFF79AFE05001A
:1033F400BAE701229BE7662F19D1636800290CDD27
:103404002161002B02D12268D20702D501335B1857
:103414002361119B0026A365C3E7002B03D101227E
:103424002168114200D09A1C2261F2E76727119BA0
:103434001298834205DB22682361D207E9D5013360
:10344400E6E70122002B01DC9218D21A1218EBE7EE
:103454002268530508D423692A000A9909980B9D08
:10346400A847431C29D156E7652F00D8DCE0A06C9F
:10347400E16C00220023FEF7C3F8002835D00123B5
:10348400354A0A9909980B9DA847431C00D142E785
:10349400119B129A934202DB2368DB070DD50B9D27
:1034A4000E9B0D9A0A990998A8470025431C00D140
:1034B40031E7129B013B9D420BDB236800259B07F0
:1034C40000D5FDE0139BE068984200DB25E7180077
:1034D40023E7220001231A320A9909980B9EB04768
:1034E400431C00D117E70135E3E7119B002B35DCC2
:1034F4000123194A0A9909980B9EB047431C00D12D
:1035040009E7119B002B05D1129B002B02D12368E4
:10351400DB07D2D50B9E0E9B0D9A0A990998B047EA
:103524000026431C00D1F6E6119B5B429E4201DB60
:10353400129B91E7220001231A320A9909980B9FE2
:10354400B847431C00D1E6E60136EDE7FFFFEF7F05
:10355400644D0008604D0008704D0008A36D129E74
:103564009E4200DD1E00002E35DC00230C93F34345
:10357400DB170F930F9BA76D0C9A3340FB1A9A42EB
:1035840032DB119B129A93423CDB2368DB0739D46C
:10359400129E119AF31BB61A9E4200DD1E00002EE5
:1035A40039DCF7430025FB170C93119A129B0C99F5
:1035B4009B1A32000A409B1A9D4200DB7DE72200E1
:1035C40001231A320A9909980B9FB847431C00D16A
:1035D400A1E60135E9E733002A000A9909980B9F0F
:1035E400B847431CC1D196E6220001231A320A9936
:1035F40009980B9FB847431C00D18CE60C9B013300
:103604000C93B7E70E9B0D9A0A9909980B9EB04745
:10361400431CBDD17FE6EA1933000A9909980B9D32
:10362400A847431CBDD176E6129B012B02DC012383
:103634001A4238D001232A000A9909980B9FB847E7
:10364400431C00D167E60E9B0D9A0A9909980B9FBB
:10365400B847431C00D15EE6A06CE16C0022002355
:10366400FDF7CEFF002808D00025129B013B9D42A8
:103674000DDB220033005032EFE6129B6A1C013B43
:103684000A9909980B9DA847431CF2D143E62200EE
:1036940001231A320A9909980B9FB847431C00D199
:1036A40039E60135E1E72A00EAE72200012319326D
:1036B4000A9909980B9EB047431C00D12BE60135AB
:1036C400E368139A9B1A9D42EFDBFBE632002B0062
:1036D40030002900FFF71CFA002800D121E6034D31
:1036E400472F00D905E6024D03E6C0466C4D00089D
:1036F400684D0008F7B5150001938A680B690090BE
:103704000C00934200DA130022002B60433212783B
:10371400002A01D001332B6023689B0602D52B6855
:1037240002332B60062723681F4027D0230043332E
:103734001B785A1E93412268920630D422000199C4
:1037440043320098089EB047431C25D006232068C6
:103754002A68E16803400025042B03D18D1AEB434A
:10376400DB171D40A3682269934201DD9B1AED1803
:103774000027BD4220D1002010E00137E3682A6809
:103784009B1A9F42D2DA2200012319320199009830
:10379400089EB047431CF0D101204042FEBD3020BA
:1037A400E1184331087021005A1C45310978A218E8
:1037B400433202331170C1E7220001231A32019906
:1037C4000098089EB047431CE6D00137D1E7F0B516
:1037D40003690C6989B00700059100269C426DDCE1
:1037E4000B00013C1433A50003935B1904930300FD
:1037F400143302935D19049B28681B68591C0193B8
:10380400FDF778FD0190B0422DD0039B02989C46B1
:103814000696624608CA9446019A99B251431B0C13
:10382400534389190A0C9B18079302881E0C069BA4
:1038340089B2D2180368521A190C6B469B8BCB1AA7
:1038440011145B18191492B21B041A43049B0691B9
:1038540004C06345DDD22B68002B04D1029B043DD8
:10386400AB422ED33C610599380001F04EF8002894
:1038740023DB0025019B029801330399019308C9B6
:10388400028855199AB2AA1A05681B0C2D0CEB1A5A
:1038940015145B191D1492B21B04134308C0049B36
:1038A4008B42ECD2029AA300D3181A68002A04D1DE
:1038B400029A043B9A4209D33C61019E300009B04C
:1038C400F0BD2B68002BCDD1013CC7E71A68002A54
:1038D400F2D1013CECE70000F0B516001F00446A89
:1038E4009DB00490259D06960797002C08D11020C2
:1038F40000F0E6FD049B5862446084600460C46088
:10390400049B5B6A196800290BD05A680123934011
:103914004A608B60049800F01EFE0022049B5B6AE0
:103924001A60079B002B1FDA01232B607B005B08C6
:103934000793079CB74B220019931A409A4216D159
:10394400B54B249A1360069B002B03D1240301D1A9
:1039540000F091FDB14B269A0A93B14B002A01D095
:1039640000F08FFD00F08FFD00232B60E1E7069E41
:10397400079F0022002330003900FDF741FE051E99
:103984000ED00123249A1360A64B269A0A93002A88
:1039940001D100F078FDA44A26990A6000F073FD75
:1039A4001AAB01931BAB009332003B00049801F067
:1039B40029F8630005905B0D00D17FE03A039B4C2E
:1039C400120B144321009A4A300018959E180022C5
:1039D400984BFEF787FD984A984BFDF70FF9984AE4
:1039E400984BFDF73BFE040030000D00FDF786FB0D
:1039F400954A964BFDF702F902000B0020002900BE
:103A0400FDF72CFE04000D00FFF7A2F8002203903E
:103A1400002320002900FDF7F9FD00280ED00398AB
:103A2400FDF76CFB0B00020029002000FDF7E8FD08
:103A3400030058425841039B1B1A03930123169316
:103A4400039B162B0FD88249DB00C9180868496804
:103A5400069A079BFDF7EEFD00284BD0039B013B24
:103A64000393002316931A9B9E1B00230B9333008E
:103A7400013B0C9304D501239B1B0B9300230C9354
:103A8400039B002B38DB039A0C9B944663440C93F2
:103A940000230F920893229B0125092B00D991E062
:103AA400052B02DD0025043B2293229B981E03284C
:103AB40000D991E0FDF714FC828429761A9B1B9AA5
:103AC4009E18644BF218202A0FDD634B0698F318F6
:103AD400D84040239B1A9C402043FFF76DF80123F4
:103AE4005E4C013E0919189371E7202306989B1A2E
:103AF4009840F2E71690B6E70B9B039A9B1A0B9338
:103B04005342089300230F93C5E701230E93239B8D
:103B1400002B65DD1F000D93049A546A0022626035
:103B240004321100143199425FD96168049800F09D
:103B3400DAFC049B20605B6A1B680A930E2F00D991
:103B440005E1002D00D102E1069B079C1493159416
:103B5400039B002B00DC85E01A000F213C4B0A403C
:103B6400D2009B185C681B6810931194039B022479
:103B74001D11EB060AD53A4B0D401A6A5B6A14987C
:103B84001599FEF77BF8069007910134344E002D09
:103B940030D1109A119B06980799FEF76FF806909A
:103BA40007917AE00123239A0E939446039B63447E
:103BB4005F1C0D933B1EAFDC0123ADE70023A5E79B
:103BC4000023F0E700230E952293013B00220D937E
:103BD4001F00133323929FE701230E93023BF5E763
:103BE40001230D931F001A00F4E7616852000131AC
:103BF400616096E701231D4208D010981199E418DA
:103C040032687368FCF7FAFF109011916D10083652
:103C1400BDE7C0460000F07F0F2700007B4D000881
:103C24007E4D0008704D0008714D00080000F03F03
:103C340001FCFFFF0000F83F61436F63A787D23F99
:103C4400B3C8608B288AC63FFB799F501344D33F87
:103C5400A84D00083204000012040000000010FE09
:103C6400804D0008039B0224002B16D0149815994C
:103C74005D420F23CA4A2B40DB00D3181A685B68E5
:103C8400FCF7BCFF002306900791C64E2D11002DB2
:103C940000D08CE0002B00D081E7169B002B00D1D4
:103CA40091E0069A079B10921193109811990022A3
:103CB400BD4BFDF7ABFC002800D184E0002F00D100
:103CC40081E00D9B002B3EDD10981199039B00228F
:103CD4005E1EB64BFCF792FF069007910D9D0134D2
:103CE4002000FDF70BFA069A079BFCF787FF0022DA
:103CF400AF4BFDF7B3FC12901391129B139CAD4A8A
:103D040010931194139B9C181194002D5ED1069866
:103D140007990022A84BFEF7E5FB109A23000690B2
:103D24000791FDF787FC002800D001E3A34813990D
:103D3400844661440B0006980799109AFDF766FCC7
:103D4400002800D0E8E2149B159C069307941B9B63
:103D5400002B00DA57E1039A0E2A00DD53E1904B61
:103D6400D2009B185C681B6808930994239B002B62
:103D740000DBCEE0002F00DDCBE000D0CFE20898DE
:103D8400099900228C4BFCF739FF069A079BFDF733
:103D94005BFC3E000897002800D0A4E20A9B0A9A24
:103DA4005D1C31231370039B013303939FE20122B3
:103DB400154205D0A41832687368FCF71FFF01236D
:103DC4006D10083663E7039E3D0089E70A9A691E71
:103DD400521917920E9A724BC900002A4AD05B18E6
:103DE4001A685B6800207649FDF748FF109A119B1A
:103DF400FEF778FB0A9B109011911293069807998D
:103E0400FEF7A6FE0400FDF779F902000B00069800
:103E14000799FEF767FB129B30345D1C1C70109AE7
:103E2400119B06900791FDF7F1FB002865D1069AD6
:103E3400079B00205C49FEF755FB109A119BFDF788
:103E4400E5FB002800D0BEE0179B9D4200D17AE735
:103E5400109811990022554BFCF7D0FE00221090C7
:103E6400119106980799514BFCF7C8FE12950690DC
:103E74000791C3E7591808684968109A119BFCF721
:103E8400BDFE109011910A9C179D06980799FEF7A4
:103E94005FFE1290FDF732F902000B0006980799B5
:103EA400FEF720FB129B0690079130332370179B7B
:103EB40001340022A34224D1414B10981199FDF7FB
:103EC400CDFB02000B0006980799FDF7B3FB002811
:103ED40000D078E0109A119B00203949FEF702FBCC
:103EE40002000B0006980799FDF790FB002800D10B
:103EF40029E76B1E1A78302A01D003963FE01D0093
:103F0400F7E706980799294BFCF778FE0690079186
:103F1400BBE70A9E089A099B06980799FDF7AEFE2F
:103F2400FEF716FE0400FDF7E9F8089A099BFCF772
:103F340065FE0B00020006980799FEF7D3FA2300EA
:103F4400303333700A9B751CEB1A9F424CD102002C
:103F54000B00FDF783FB06000F0002000B0008981E
:103F64000999FDF753FB00282CD1089809993200D0
:103F74003B00FDF745FB002801D0E30722D4059957
:103F8400049800F0E8FA00232B70039B249A013371
:103F94001360269B002B00D175E21D6073E2C046BE
:103FA400A84D0008804D00080000F03F00002440A8
:103FB40000001C400000C0FC000014400000C07C55
:103FC4000000E03F039E6B1E1A78392A06D10A9A34
:103FD4009A4207D130231370130001361A78013244
:103FE4001A708AE71D00EEE70022CF4BFCF706FEAD
:103FF40000220023069007912E00FDF701FB002804
:1040040000D187E7BBE70E9A002A00D187E0229A05
:10401400012A6EDC189A002A67D0C44A9B18089DAE
:104024000B9C0B9A0121D2180B920C9A0498D3186A
:104034000C9300F02EFB0600002C0EDD0C9B002BD5
:104044000BDD0C9A2300944200DD13000B9AE41A52
:10405400D21A0B920C9AD31A0C93089B002B1ED0E5
:104064000E9B002B5FD0002D11DD31002A00049837
:1040740000F0A8FB059A01000600049800F012FB6A
:1040840005991090049800F066FA109B0593089B1C
:104094005A1B04D00599049800F094FB0590012163
:1040A400049800F0F6FA0F9B0890002B3DDD1A00EF
:1040B4000100049800F086FB229B08900025012B48
:1040C4003BDC0025069BAB4233D1079B1B03AB4271
:1040D4002FD1199B079A13422BD00B9B0135013327
:1040E4000B930C9B01330C9323E036231A9A9B1AEF
:1040F40095E7089B7D1EAB4206DB5D1B002F0BDAA8
:104104000B9BDC1B00238CE7089B0895EA1A0F9B8A
:1041140000259B180F93F1E70B9C3B0081E7089D5A
:104124000B9C0E9E88E7089AB4E7229B0025012B7E
:10413400C7DD0F9B0120002B0BD0089B089A1B693D
:104144000F9303339B00D318586800F059FA2023C7
:10415400181A0C9BC0181F23184000D1ABE0013380
:104164001B1A042B00DC9BE01C23181A0B9B24183D
:104174001B180B930C9B1B180C930B9B002B05DD3E
:104184001A000599049800F06FFB05900C9B002B16
:1041940005DD1A000899049800F066FB0890169B48
:1041A400002B00D189E00899059800F0AEFB0028A7
:1041B40000DB82E0039B0A22013B03930599002361
:1041C400049800F0E1F90E9B0590002B00D15DE10D
:1041D400002331000A22049800F0D6F90D9B060052
:1041E400002B02DC229B022B6DDC002C05DD310050
:1041F4002200049800F038FB06003000002D11D096
:104204007168049800F06FF93100040033690C31CF
:104214009A1C92000C3000F05DF9012221000498F0
:1042240000F022FB0D9F0A9B013F0B93DB19370023
:1042340006000F9308990598FFF7C9FA39000D9005
:104244000400059800F061FB32000E900899049870
:1042540000F074FB01230C93C36830340500002B79
:1042640004D10100059800F050FB0C90290004983B
:1042740000F071F90C9B229A134300D089E0069A4E
:104284000133134200D084E0392C00D1A3E00E9B0B
:10429400002B01DD0D9C31340B9B5D1C1C7027E051
:1042A400042B00D169E70B9A1C33D2180B920C9A99
:1042B400E418D31860E70300F5E7002F3CDC229BE9
:1042C400022B39DD0D970D9B002B0CD1089905228B
:1042D400049800F059F908900100059800F015FBC6
:1042E400002800DD5AE5239B0A9DDB430393002746
:1042F4000899049800F02FF9002E00D13FE6002F12
:1043040005D0B74203D03900049800F024F93100F5
:10431400049800F020F932E608952E00E3E7002324
:1043240008931E00DFE7C046000024403304000069
:10433400039608952E0031E50E9B0D97002B00D0B7
:1043440053E70A9D08990598FFF741FA0A9B303014
:104354000D9A287001350400EB1A9A4278DC151E78
:1043640000DC012500270A9B5D19059901220498A8
:1043740000F07AFA0899059000F0C7FA00282FDCBB
:1043840001D1E3072CD46B1E1A78302AB0D11D005A
:10439400F9E70E9B002B07DB1D00229B1D4326D152
:1043A4000123069A134222D10C9B002B00DC73E7F5
:1043B40005990122049800F057FA0899059000F035
:1043C400A4FA002804DC00D066E7E30700D463E71E
:1043D400392C00D05EE70B9B0B9A5D1C39231370BC
:1043E4006B1E1A78392A3BD001321A7080E70B9B76
:1043F40001330D930C9B002B05DD392CEBD00D9D67
:1044040001340B9B4AE70B9B0F9A0D9D1C70934242
:10441400ABD000230A220599049800F0B5F80023D4
:1044240005900A2239000498B74206D100F0ACF88E
:10443400070006000D9B0B93FCE600F0A5F8310085
:10444400070000230A22049800F09EF80600F1E712
:1044540000230A220599049800F096F8059071E764
:104464000A9A9A4205D1039B0133039331231370B3
:104474003EE71D00B4E70A4B269A0A93094B002A2B
:1044840001D0269A13600A981DB0F0BD0D9B002B35
:1044940000DD56E7229B022B00DC52E713E7C046FF
:1044A400724D00087A4D0008034B1B68186A0028F7
:1044B40000D10248F0307047000000206400002062
:1044C40010B5034B0100186800F0FEFA10BDC04699
:1044D40000000020002310B59A4200D110BDCC5C2E
:1044E400C4540133F8E770B5466A04000D00002E89
:1044F40007D11020FFF7E4FF606246608660066023
:10450400C660666AF368002B13D0636AAA00DB688E
:104514009B181868002818D101210E00AE40721DA6
:104524009200200000F0C2FA00280CD0456086609A
:104534000DE021220421200000F0B8FA636AF06043
:10454400DB68002BE1D1002070BD02681A600023F3
:104554000361C360F8E770B5446A06000D00002CDF
:1045640007D11020FFF7ACFF7062446084600460E0
:10457400C460002D07D0736A6A68DB6892009B18D8
:104584001A682A601D6070BDF7B51E0014239C468E
:1045940007000C0000200D698C44634619881B68D1
:1045A40051431B0C534389190E0C9B1989B21E0CE1
:1045B4001B045B186146013008C18C468542ECDC63
:1045C400002E1BD0A3689D4212DB63683800591C7F
:1045D400FFF789FF2100236901909A1C92000C3196
:1045E4000C30FFF777FF21003800FFF7B4FF019C80
:1045F4002B1D9B00E31801355E6025612000FEBD84
:104604000300020C0020824201D11B0410301A0E58
:1046140001D108301B021A0F01D104301B019A0F7B
:1046240001D102309B00002B03DB01305B0000D47E
:10463400202070470722036810B501001A400DD0EE
:1046440001240020234205D10230034203D0E34079
:1046540020000B6010BD9B080B60FBE79CB21000B0
:10466400002C01D110201B0CDAB2002A01D1083031
:104674001B0A1A0701D104301B099A0701D1023021
:104684009B08DA07E8D45B0801D00130E4E7202076
:10469400E0E710B50C000121FFF725FF0123446179
:1046A400036110BDF0B50B691500126989B00C00E7
:1046B400934201DA2C000D0027692E69A268BB1908
:1046C40061680193934200DD0131FFF70CFF0300A1
:1046D40014330093009ABB1994469B009C44130026
:1046E4000022049063451CD32A001434BF00E3194C
:1046F4001432B6000593931902940693069B9A42CA
:1047040011D3019B002B06DD04235B429C446346CA
:104714001B68002B51D0049B019A18001A6109B040
:10472400F0BD04C3DEE71488002C1ED00026009DD3
:10473400029F01CF079508CD039383B26343190009
:104744006B46000C9B896043CB1803999B19090C99
:104754004118180C09180E0C9BB209040B43079955
:104764000B60059BBB42E4D82E6013681B0C0393BB
:104774001ED00026009B029C1B680098070021881D
:10478400039D9BB2694320C82D0C49198E1931042D
:104794000B433B6008CC03991B0C4B437968360CE4
:1047A40089B25B1805999B191E0CA142E6D80360D7
:1047B400009B043204330093A0E7019B013B019367
:1047C4009FE700000323F7B5134005000E00140013
:1047D400002B08D02249013B9A0052580023310093
:1047E400FFF7D2FE0600A310019336D06C6A002CAA
:1047F40007D11020FFF764FE68624460846004609F
:10480400C4606F6ABC68002C07D116492800FFF702
:1048140040FF00230400B86003600122019B13429F
:104824000AD0310022002800FFF73CFF07003100C6
:104834002800FFF790FE3E00019B5B1001930CD013
:104844002068002807D1220021002800FFF72AFF52
:104854000023206003600400DFE73000FEBDC04693
:10486400704E000871020000F0B50D0017002B69AE
:10487400541185B0E3180293013301934968AB687E
:104884000390019A934234DB0398FFF72CFE002334
:104894000200060019001432A3422DDBE343DB17A8
:1048A4001C402B001F21A40014192A691433920000
:1048B4009A180F4024D00131C91B8C460021186876
:1048C400B84001436046216002CB0434C1409A429F
:1048D400F5D82160002902D0029B02330193019B89
:1048E4000398013B33612900FFF735FE300005B022
:1048F400F0BD01315B00C4E7980011500133CBE7F0
:1049040002CB02C49A42FBD8E9E70A69036930B5CD
:104914009B1A0ED192001430143184188918043C67
:10492400043922680D68AA4205D0AA4292410123A3
:104934001343180030BDA042F1D3FAE7F0B50D00DF
:1049440085B00700110028001400FFF7DEFF061EE3
:1049540008D101003800FFF7C6FD01234661036159
:1049640005B0F0BD01230193002804DB23002C00D3
:104974001D000023019361683800FFF7B4FD2F0088
:104984000022019B2669C3601434B300E318029328
:104994002B6914379B00FB180393030094461433CC
:1049A40020CC04CF0192AAB294446A46614692880C
:1049B4002D0C8A1A0199090C691A151449190D1438
:1049C40092B209040A431A60039AAC460433BA4209
:1049D400E6D802991A008C4205D3043A1368002BD6
:1049E4000ED00661BCE704CC91B261440D14120CE4
:1049F4005219151489B212040A43AC4604C3E8E7F9
:104A0400013EEAE7F7B51D000121089F1400FFF7F6
:104A14006AFD2B036D0006001B0B6D0D24D1019361
:104A2400002C27D068460094FFF704FE009C002861
:104A34001ED0019B20211A00091A8A40C340224338
:104A440072610193019CB461631E9C410134346121
:104A5400002D18D0124BED1835232D183D60181A6F
:104A6400099B18603000FEBD802252031343D6E731
:104A74007461E7E701A8FFF7DDFD0124019B3461C0
:104A840073612030E4E7074BC018074B3860E31824
:104A94009B00F3185869FFF7B3FD6401201ADFE7A0
:104AA400CDFBFFFFCEFBFFFFFFFFFF3F4A4370B587
:104AB4001100140000F008F8051E03D022000021A4
:104AC400FEF727FB280070BD032370B5CD1C9D4362
:104AD400083506000C2D1ED20C25A9421DD8300025
:104AE40000F074F8254A14682100002919D1244CD7
:104AF4002368002B03D1300000F044F82060290023
:104B0400300000F03FF8431C2CD10C2330003360FC
:104B140000F05DF803E0002DDFDA0C2333600020A1
:104B240070BD0B685B1B1AD40B2B03D90B60CC181C
:104B3400256003E08C420ED163681360300000F0FE
:104B440046F8200007220B30231D9043C31AE7D0F8
:104B54005A42E250E4E74B6863600C00EEE70C0055
:104B64004968C2E70323C41C9C43A042E0D0211A35
:104B7400300000F007F8431CDAD1C6E7F00100204A
:104B8400F4010020002370B5064C050008002360E2
:104B940000F02AF8431C03D12368002B00D02B60BB
:104BA40070BDC0460802002082B0002900D101A9CE
:104BB400101E06D0002B06D013780B601078431E0D
:104BC400984102B0704702204042FAE770477047AC
:104BD4000B1E04D0FF2A04D98A2303608B3B1800E0
:104BE40070470A700123FAE7044A1368002B03D0C4
:104BF4001818106018007047014BF9E7F8010020FD
:104C040010020020F8B5C046F8BC08BC9E467047A8
:0C4C1400F8B5C046F8BC08BC9E467047CE
:104C20005403000824030008360300087802000833
:104C3000360300081A03000836030008780200084B
:104C400024030008240300081A030008780200085F
:104C50008002000880020008800200083C0300086F
:104C60002403000824030008F8020008DC030008FD
:104C7000F80200081A030008F8020008DC03000824
:104C800024030008240300081A030008DC030008BA
:104C9000800200088002000880020008E603000885
:104CA000D40600082406000824060008220600088E
:104CB000C6060008C6060008BC0600082206000852
:104CC000C6060008BC060008C60600082206000842
:104CD000CC060008CC060008CC0600085C070008DB
:104CE000F00D0008B00C0008B00C0008AC0C000877
:104CF000C80D0008C80D0008BA0D0008AC0C00086B
:104D0000C80D0008BA0D0008C80D0008AC0C00085A
:104D1000D00D0008D00D0008D00D0008D40F0008F9
:104D2000781E00085A1E0008141E0008321D0008D4
:104D3000141E00084C1E0008141E0008321D000836
:104D40005A1E00085A1E00084C1E0008321D00089A
:104D50002A1D00082A1D00082A1D000890200008AE
:104D6000494E4600696E66004E414E006E616E000F
:104D70003000496E66696E697479004E614E0000BC
:104D80000080E03779C34143176E05B5B5B8934647
:104D9000F5F93FE9034F384D321D30F94877825A13
:104DA0003CBF737FDD4F1575000000000000F03F31
:104DB00000000000000024400000000000005940F6
:104DC0000000000000408F40000000000088C34049
:104DD00000000000006AF8400000000080842E41BE
:104DE00000000000D01263410000000084D797410A
:104DF0000000000065CDCD41000000205FA0024210
:104E0000000000E876483742000000A2941A6D4284
:104E1000000040E59C30A2420000901EC4BCD64277
:104E200000003426F56B0C430080E03779C3414322
:104E300000A0D8855734764300C84E676DC1AB4398
:104E4000003D9160E458E143408CB5781DAF1544B6
:104E500050EFE2D6E41A4B4492D54D06CFF0804491
:104E6000F64AE1C7022DB544B49DD9794378EA44A6
:104E700005000000190000007D0000004300504FB5
:104E8000534958002E0000202020202020202020E0
:104E900028282828282020202020202020202020EA
:104EA000202020202020208810101010101010101A
:104EB000101010101010100404040404040404045E
:104EC00004101010101010104141414141410101E6
:104ED00001010101010101010101010101010101C2
:104EE00001011010101010104242424242420202D0
:104EF0000202020202020202020202020202020292
:104F0000020210101010200000000000000000003D
:104F10000000000000000000000000000000000091
:104F20000000000000000000000000000000000081
:104F30000000000000000000000000000000000071
:104F40000000000000000000000000000000000061
:104F50000000000000000000000000000000000051
:104F60000000000000000000000000000000000041
:104F70000000000000000000000000000000000031
:084F8000000000000000000029
:044F8800ED00000830
:044F8C00C500000854
:104F900004000020000000000000000000000000ED
:104FA0000000000000000000000000000000000001
:104FB00000000000000000000000000000000000F1
:104FC00000000000000000000000000000000000E1
:104FD00000000000000000000000000000000000D1
:104FE00000000000000000000000000000000000C1
:104FF000000000004300000000000000000000006E
:1050000000000000000000000000000000000000A0
:10501000000000004300000000000000000000004D
:105020000000000000000000000000000000000080
:10503000000000004300000000000000000000002D
:105040000000000000000000000000000000000060
:10505000000000004300000000000000000000000D
:105060000000000000000000000000000000000040
:1050700000000000430000000000000000000000ED
:105080000000000000000000000000000000000020
:1050900000000000430000000000000000000000CD
:1050A0000000000000000000000000000000000000
:1050B00000000000430000000000000000000000AD
:1050C00000000000000000000000000000000000E0
:1050D00000000000D54B0008AD4B000800000000A8
:1050E000864E0008844E0008854E0008854E000854
:1050F000854E0008854E0008854E0008854E000844
:10510000854E0008854E0008854E0008FFFFFFFF12
:10511000FFFFFFFFFFFFFFFFFFFF00000100415304
:1051200043494900000000000000000000000000AA
:1051300000000000000000000000000000004153DB
:10514000434949000000000000000000000000008A
:10515000000000000000000000000000000000004F
:040000050800309926
:00000001FF
